:100000000C944C000C9469000C9469000C946900E9
:100010000C9469000C9469000C9469000C946900BC
:100020000C9469000C9469000C9469000C946900AC
:100030000C9469000C9469000C9469000C9469009C
:100040000C9469000C9469000C9469000C9469008C
:100050000C9469000C9469000C9469000C9469007C
:100060000C9469000C9469000C9469000C9469006C
:100070000C9469000C9469000C9469000C9469005C
:100080000C9469000C9469000C9469000C9469004C
:100090000C9469000C94690011241FBECFEFD4E0CA
:1000A000DEBFCDBF12E0A0E0B1E0E4E0F5E102C0C8
:1000B00005900D92A236B107D9F712E0A2E6B2E0A0
:1000C00001C01D92A43DB107E1F70E946B000C94A2
:1000D000800A0C940000DF93CF93CDB7DEB768970A
:1000E0000FB6F894DEBF0FBECDBF0E94DC000E94A9
:1000F000D70184EF91E00E945A040E9400070E94F9
:10010000D4020E9435020E94C70280E00E94B6021B
:10011000882311F40E94D801FE01319688E1DF01A5
:100120001D928A95E9F788EC90E09A83898328E309
:1001300031E03E832D8383EC90E09A8789873E8768
:100140002D8788EB90E09A8B898B8EE390E09E8BD5
:100150008D8BCF0163E00E945E0880E090E068969E
:100160000FB6F894DEBF0FBECDBFCF91DF910895DB
:100170000E9490090E94BC080E94FC080E940E0583
:100180000E945C0208950E943D090E94D0080895D3
:100190000E941F090E943C07882369F00E943907CA
:1001A000893029F481E090E00E94A2090895853009
:1001B00010F40E949E080895E1E6F0E080E8808354
:1001C0001082A89584B7877F84BFE0E6F0E0808145
:1001D00088618083108208959C016230710571F1FD
:1001E0006330710520F46130710539F41BC0633050
:1001F000710529F06430710569F080E00895FC0113
:10020000F07084A1932F832B84A385A190959823CC
:1002100095A312C0FC01F07084A1832B84A385A157
:10022000832B09C0FC01F07084A1932F9095892342
:1002300084A385A1892385A381E00895FC01F07042
:1002400084A1932F9095892384A385A1832B85A3D3
:1002500081E00895E82FF0E0EE0FFF1FEE59FD4F0B
:100260008081882319F480E090E00895818191E0F5
:1002700089270895E82FF0E0EE0FFF1FEE59FD4F9C
:100280008081882319F080E090E0089590E08181DA
:10029000882309F491E081E09827892F0895E82FB9
:1002A000F0E0EE0FFF1FEE59FD4F80810895E82F1B
:1002B000F0E0EE0FFF1FEE59FD4F808191E089279E
:1002C00008956F927F928F929F92AF92BF92CF923A
:1002D000DF92EF92FF920F931F93CF93DF93C2E6CB
:1002E000D2E070E0872E71E0972E6624639466E07A
:1002F000762E88818983F401E080F1805FEFC52E3E
:10030000D12CCE20DF20F60134A1AF2CBB2485A157
:1003100020E090E08A219B21892B09F021E0832FA6
:1003200090E08A219B21892B41F0222319F403E0DC
:1003300010E00AC004E010E007C0222319F401E035
:1003400010E002C002E010E0C70164E070E00E942B
:10035000EC00C70162E070E00E94EC00872D8A95F6
:10036000F1F7F60183A1188290E08A219B21892B65
:1003700009F46882C701B8010E94EC00229682E06D
:1003800090E0880E991E92E0CC36D90709F0B1CFE3
:10039000DF91CF911F910F91FF90EF90DF90CF9061
:1003A000BF90AF909F908F907F906F900895089529
:1003B0001F9386E391E00E94DA038EE10E94CB0353
:1003C00081E090E00E94D00381E090E00E94D5039C
:1003D0008AE091E00E94430488EC90E00E9482034E
:1003E00010926C0210926D0211E02EC00E946D03FB
:1003F0000E940E050E94C70280E00E94B602882378
:1004000041F00E94530410936C028BE191E00E9432
:10041000430480916C02882319F08DE00E943F070D
:100420000E943C07882381F080916D02882361F44B
:100430000E9453040E9439078D3031F410936D02ED
:1004400084E291E00E94430480916C02882371F25F
:1004500080916D02882351F20E9453041F910895E8
:100460008091700290917102089583E090E09093E2
:1004700071028093700208950F931F93082F0E94BA
:10048000F708992787FD909510E08017910789F468
:1004900080917002909171028130910531F0019745
:1004A000909371028093700204C080E090E00E94FB
:1004B000A2091F910F91089580917002909171028D
:1004C000039721F480E061E00E945308809170025C
:1004D000909171020297D1F480916E028F5F8093A8
:1004E0006E028A3099F410926E0280916F02882316
:1004F00019F080E061E002C080E060E00E945308F3
:1005000080916F0291E0892780936F028091700241
:1005100090917102019721F480E060E00E945308FD
:100520000895882311F080E0089580917202882355
:1005300019F480E090E008958091730291E089279A
:100540000895882311F080E0089580917202882335
:1005500019F080E090E0089590E080917302882384
:1005600009F491E081E09827892F0895882311F0FC
:1005700080E00895809172020895882311F090E040
:1005800004C09091720281E09827892F089580918C
:1005900072028093730289B11092720287FF03C0C6
:1005A00081E080937202089557985F9808959C01A6
:1005B0006230710571F16330710520F461307105AD
:1005C00039F41BC06330710529F06430710569F09E
:1005D00080E00895FC01F07084A1932F832B84A305
:1005E00085A19095982395A312C0FC01F07084A179
:1005F000832B84A385A1832B09C0FC01F07084A107
:10060000932F9095892384A385A1892385A381E0D5
:100610000895FC01F07084A1932F9095892384A301
:1006200085A1832B85A381E00895CF93DF93CCEB45
:10063000D1E08991999164E070E00E94D70281E055
:10064000CA3CD807B1F7C2EBD1E08991999164E037
:1006500070E00E94D70281E0CC3BD807B1F7DF9170
:10066000CF910895482FE0917402F0E0EE0FFF1F44
:10067000EE54FE4F20813181F901F07085A1832B6A
:1006800085A3ACEBB1E02D913C91119740FF07C0E1
:10069000F901F07095A1832F8095892304C0F90199
:1006A000F07085A1832B85A3129681E0AA3CB80740
:1006B00011F04695E8CFE62FF0E0EE0FFF1FEE5465
:1006C000FE4F80819181FC01F07025A1892F8095DA
:1006D000822385A36093740208958091750290919E
:1006E00076020E94AC03809175029091760220916F
:1006F000770230917802820F931F90937602809355
:1007000075020895EF92FF920F931F937C010E9450
:100710009C0300E010E062E17AE780E090E0A8014D
:1007200097010E94340A30937802209377021F9138
:100730000F91FF90EF9008951092800084E08093D5
:100740008100109285001092840008952091840009
:1007500030918500C9010895AC0120918400309149
:100760008500C901841B950B885E9340B0F7C901D1
:1007700008954091840050918500480F591F2091A1
:10078000840030918500C901841B950B885E9340DD
:10079000B0F7C90108958093D0011092D101089556
:1007A0009093CB018093CA0108959093CD018093DB
:1007B000CC0108959093D3018093D20108950F93B3
:1007C0001F93182F092F362F272F1092D6014093F1
:1007D000D7011092DA01E091D201F091D301309764
:1007E00009F44EC06091D0017091D101818190E0F7
:1007F0000E94FB09BC018091D4019091D5010E9417
:100800000D0ACB016AE070E00E94FB099093D901C8
:100810008093D8012093CF013093CE018BED91E0EE
:10082000612F702F40E250E00E94710A8091CA014E
:100830009091CB01019721F5E12FF02FDF010D9071
:100840000020E9F71197AE1BBF0BE091D201F091A8
:10085000D30161818091CC019091CD01019711F07C
:1008600025E001C027E070E06F5F7F4F8A2F90E0A6
:100870000E94FB098150281718F48EEF8093DA014B
:100880001F910F9108959C018091CC019091CD0111
:10089000019711F070E001C076E0C90160E04FEF10
:1008A0000E94DF0308950E9484061092DB011092DB
:1008B000D60108959093D5018093D4010E948F06AC
:1008C00084E190E09093D1018093D0010E94530481
:1008D000089540E0611141E0692F0E94510608959A
:1008E000CF92DF92EF92FF920F931F93C82EE62EC6
:1008F000D72E8091CC019091CD01019719F0F62E61
:1009000000E051C0F72E00E019C0CF016C2D402F40
:10091000212F0E94CA06912F9E0D40E0811141E0D7
:10092000892F6F2D0E9451061F5FE091D201F09137
:10093000D3018281181748F30F5FFA94E091D20136
:10094000F091D3018181081710F010E009C010E088
:10095000ECCF812F8E0D6F2D40E00E9451061F5F5E
:10096000E091D201F091D3018281181790F37F2D8D
:1009700071506E2D34C0CF016C2D402F212F0E945D
:10098000CA06612F6D0D40E0811141E08F2D0E945C
:1009900051061F5FE091D201F091D30182811817B7
:1009A00050F30F5FF394E091D201F091D301818174
:1009B000081710F010E009C010E0ECCF612F6D0DAA
:1009C0008F2D40E00E9451061F5FE091D201F0910F
:1009D000D3018281181790F36F2D6F5F7D2DCB01AE
:1009E0001F910F91FF90EF90DF90CF9008951F938C
:1009F000CF93DF93EC0110E009C00E947004BC01AA
:100A00001F5F853034F477FD04C0219688818823E8
:100A1000A1F7812FDF91CF911F9108951F938091AE
:100A2000790290917A02019690937A0280937902EA
:100A30002091D8013091D9018217930708F46DC035
:100A400010927A0210927902E091D601F0E0E6531A
:100A5000FE4F8189882351F48091D701823008F4B8
:100A60005CC081508093D7011092D6011091D601BD
:100A7000412F50E0FA01E653FE4F8189882309F4A3
:100A80004CC02091CA013091CB012115310521F0D4
:100A90002130310551F512C08091DA01882329F502
:100AA0006091CE017091CF01CA0185529E4F0E9484
:100AB000F7041150180F1093D60117C07091CF0191
:100AC0006091CE018091CC019091CD01019721F4EC
:100AD0008091DA01780F03C08091DA01681B812FC1
:100AE00090E085529E4F0E94F7048091DA018F5F5B
:100AF0008093DA01992787FD9095E091D201F091DA
:100B0000D301218130E0281739073CF41092DA0133
:100B10008091D6018F5F8093D6010E949C061F9121
:100B200008956F927F928F929F92AF92BF92CF92D1
:100B3000DF92EF92FF920F931F93CF93DF93F82FE3
:100B4000E92FC62EB72EA42E262F332727FD30954A
:100B5000992787FD9095281B390B472F552747FD6F
:100B600050958E2F992787FD9095481B590B37FF7D
:100B700004C066246A94762C03C071E0672E712C41
:100B800057FF04C088248A94982C03C061E0862E05
:100B9000912C790137FF04C0F094E194F108F394AB
:100BA0008A0157FF03C0109501951F4FE016F1060B
:100BB000CCF0E701D595C795BE2EDF2E0FC040E0E3
:100BC000A11041E08D2D6B2D0E945106C01BD10B51
:100BD000D7FF03C0CE0DDF1DB80CD60CDC1479F79F
:100BE000CD2C18C0E801D595C795DE2ECF2E0FC0AD
:100BF00040E0A11041E08C2D6D2D0E945106CE19D0
:100C0000DF09D7FF03C0C00FD11FC60CD80CDB14FF
:100C100079F7BD2C40E0A11041E08C2D6B2D0E9496
:100C20005106DF91CF911F910F91FF90EF90DF90D0
:100C3000CF90BF90AF909F908F907F906F900895CE
:100C4000DF92EF92FF920F931F938C01F62EE72E07
:100C5000D42E712F0E949105C801602F7E2D4D2D3D
:100C60000E9491058F2D912F6F2D7E2D4D2D0E946D
:100C70009105802F9E2D6F2D7E2D4D2D0E9491056B
:100C80001F910F91FF90EF90DF90089540E0611168
:100C900041E0692F0E9451060895692F0E946D0658
:100CA0000895E82F8530C0F46730B0F481E090E01B
:100CB00002C0880F991F6A95E2F7982FAE2FB0E017
:100CC000282F2095FD01E458FD4F808128234111F4
:100CD000292BA458BD4F2C930895E82F853088F414
:100CE000673078F481E090E002C0880F991F6A9520
:100CF000E2F7F0E0E458FD4FE081E82319F0E1E08D
:100D000001C0E0E08E2F089510927C0210927D02C7
:100D100010927E0210927F021092800208950E942B
:100D2000150310927C0210927D0210927E021092A6
:100D30007F0210928002089560917B02E62FF0E01E
:100D4000E458FD4F80810E94320380917B028F5FC7
:100D500080937B02853010F010927B020895FC0195
:100D6000009711F480E008958381262F281B27FF28
:100D700003C080E090E0089540E0332727FD3095E0
:100D8000848190E0281739070CF041E081E0482782
:100D9000842F0895FC01009789F13181431770F584
:100DA0008281281758F58381681B67FD27C0A62F0D
:100DB000BB27A7FDB095848190E0A817B907F4F48C
:100DC000822F632F0E94F209382F340F6581CD01E5
:100DD00070E00E94FB090696232F269526952695FE
:100DE000E80FF91FE20FF11D808190E0377002C01B
:100DF000959587953A95E2F78170089580E008957A
:100E0000DF93CF9300D00F92CDB7DEB7DE011196FE
:100E1000EBEFF1E083E001900D928150E1F7509A01
:100E2000589A0E9490078FE690E00E949A0781E00E
:100E300090E00E947D0781E090E061E070E00E9418
:100E400067070E945007CE0101960E94D0070F90BD
:100E50000F900F90CF91DF9108950E941708089589
:100E60000E94030808950E94F90708950E94EF0761
:100E700008950E94100808950E94E90708950E94AD
:100E800003080E94F9078823E1F38CE291E00197BF
:100E9000F1F70E94E907882311F00E9410080895D5
:100EA00085B3897F85BB95B58091FE018770987F5A
:100EB000892B85BD089585B5887F85BD089585B347
:100EC00090E09695879596958795817008950097FF
:100ED00019F0019789F409C084B56295660F660F11
:100EE000607C8F73862B84BD089584B56370629592
:100EF000607F8F7C862B84BD0895009721F0019739
:100F000039F080E0089584B58C7F84BD81E0089538
:100F100084B58E7F84BD84B5826084BD81E00895F0
:100F200014BC15BC16BC18BC81E090E00E947D0783
:100F300081E00895DF93CF930F92CDB7DEB76FEFC7
:100F400071E045E09E012F5F3F4F0E942908E82F86
:100F5000982F9F5F9093FE012981215027BD2F5F1D
:100F600018BC85B5877029F085B59770887F982B58
:100F700095BD30E0F0E0E150FE4F008002C0220F4E
:100F8000331F0A94E2F7C9010F90CF91DF910895C2
:100F900001979093CD00019681508093CC000895E5
:100FA000FC018081918101979093CD000196815041
:100FB0008093CC009281892F8550843008F098E08E
:100FC00088E18093C9009550990F9093CA0081E001
:100FD00008958091C800881F8827881F08958091F0
:100FE000C80090E025E0969587952A95E1F78170F5
:100FF00008958091C80090E036E0969587953A95DF
:10100000E1F781700895982F8091C80085FFFCCF8B
:101010008091C80080648093C8009093CE000895AA
:101020008091C80087FFFCCF8091CE000895FC011D
:101030000CC08091C80085FFFCCF31968091C8001C
:1010400080648093C8009093CE009081992389F7A3
:101050000895CF93DF93EC01D901FB0190E020E0EC
:1010600030E061E070E018C081919B01082E02C061
:10107000220F331F0A94E2F72F5F3F4F36952795D3
:101080002C0F3D1F02C0369527958A95E2F72F3F1A
:10109000310521F018F09F5F941730F32C93892FBE
:1010A000DF91CF910895882329F4662311F0429AA5
:1010B0000895429808953A9A429A0895FF920F939C
:1010C0001F93CF93DF938C01F62E0E949C030E9406
:1010D000A603C80101C0CF01EC018E819F810E944F
:1010E000AC03E881F9818A819B8109958E819F817A
:1010F0002C813D81820F931F9F838E830E94A603C4
:10110000DC01F80160E02FEF3FEF15C08681978189
:10111000AD01481B590BCA015FE78F3F9507D8F215
:1011200044275527481B590B4217530710F4EF016A
:101130009A016F5F38966F1580F6E8CF382F20E060
:10114000AFEF41E0822F90E065E070E00E94FB0984
:10115000FC01EF57FD4F8481882339F43083A1834C
:1011600044831382128281E002C02F5F80E02F301F
:1011700010F4882339F30895CF93DF93C1E8D2E0C8
:101180008C81882329F08881998161E00E9469041B
:10119000259682E0CC3CD80799F7DF91CF9108954E
:1011A000CF93DF93C1E8D2E08881998160E00E940B
:1011B00069048C81882399F08A819B8101969B83A5
:1011C0008A830197089759F489818F5F89831B82ED
:1011D0001A82873024F088810E943C021C82259666
:1011E00082E0CC3CD80701F7DF91CF910895809140
:1011F00004029091050208958091040290910502E5
:1012000061E00E94690408950F931F938C018091FF
:1012100004029091050260E00E946904809104023A
:10122000992787FD90950596800F911F65E070E0E6
:101230000E94210A809304021F910F9108950E9439
:10124000610181E00E942A01882319F081E090E089
:1012500007C083E00E942A01882329F08FEF9FEFC7
:101260000E940409089584E00E942A01882321F045
:10127000809104020E94630908954091CC0250912C
:10128000CD024115510511F41092CE022091CF02EA
:101290003091D0022115310519F481E080930602C6
:1012A0001416150634F4415050405093CD0240932B
:1012B000CC021216130634F4215030403093D00281
:1012C0002093CF020895282F80910602882339F1B8
:1012D0002093D10281E08093CE02109206028AE030
:1012E00090E09093CD028093CC028EE190E09093B9
:1012F000D0028093CF02213039F0213038F02230F3
:1013000039F0233049F406C083E007C084E005C00B
:1013100082E003C081E001C080E00E943F070895A1
:101320008091CE026091D102882329F0862F90E02F
:1013300076E041E004C0862F90E076E040E00E9435
:10134000910508951F931092D2021092D302009734
:1013500031F489E00E943F0787E092E004C00197E2
:1013600021F487E292E00E94430411E00E946D03A1
:101370000E940E050E94C70280E00E94B6028823E8
:1013800069F08091D202882349F41093D20286E456
:1013900092E00E9443048DE00E943F070E943C07B8
:1013A000882371F08091D302882351F40E94390779
:1013B0008D3031F41093D3028FE492E00E94430405
:1013C0008091D302882391F290E08091D202882309
:1013D00009F491E0911751F20E9453040E943502E2
:1013E0001F910895002480FD060E660F11F086956A
:1013F000D1F7802D08955527002480FF02C0060EE6
:10140000571F660F771F6115710521F09695879517
:10141000009799F7952F802D0895AA1BBB1B51E1CA
:1014200007C0AA1FBB1FA617B70710F0A61BB70B54
:10143000881F991F5A95A9F780959095BC01CD01F9
:10144000089597FB092E07260AD077FD04D0E5DF23
:1014500006D000201AF4709561957F4F0895F6F735
:10146000909581959F4F089597FB092E05260ED0E4
:1014700057FD04D014D00AD0001C38F45095409584
:10148000309521953F4F4F4F5F4F0895F6F7909558
:101490008095709561957F4F8F4F9F4F0895A1E282
:1014A0001A2EAA1BBB1BFD010DC0AA1FBB1FEE1FDE
:1014B000FF1FA217B307E407F50720F0A21BB30B29
:1014C000E40BF50B661F771F881F991F1A9469F7A5
:1014D00060957095809590959B01AC01BD01CF0101
:1014E0000895FB01DC014150504048F001900D92FD
:1014F0000020C9F701C01D9241505040E0F7089507
:04150000F894FFCF8D
:1015040003800340032000800310202050524553E1
:101514005320544F205354415254002020524541EB
:101524004459210020204F50504F4E454E542052D4
:10153400454144592100010305203B02000092204B
:10154400EB737D5FDE3DA552EA7A14004A2222291C
:10155400BA2ED0050014C0010020A4126A2B9A747C
:10156400A372A338ED498F38CE2AA712AA2AAE490E
:10157400100410145444380E11152A250000EA5B97
:10158400EB3A4F726B3BCF73CF134F7AED5B97748B
:10159400247B5D564972FD5B6F5B6F7BEF136F7F3E
:1015A400EF57CE3897246D7B6D2BED5FAD5AAD248C
:1015B400A772034000800310038003200040002032
:1015C40000100008000400020001000000000000F8
:1015D40014000000000000000000000000000000F3
:1015E40000000000000000000000000000000000F7
:1015F4000000000000000000000000D0000801000E
:101604000306080A0206012020594F55204C4F5367
:10161400452020505245535320544F20504C41599B
:1016240020414741494E002020594F552057494EEB
:101634002020505245535320544F20504C415920A0
:10164400414741494E002020524541445921002040
:10165400204F50504F4E454E54205245414459213D
:02166400000084
:00000001FF
